{
  "contractName": "ApplicationData",
  "abi": [
    {
      "inputs": [],
      "payable": false,
      "stateMutability": "nonpayable",
      "type": "constructor"
    },
    {
      "anonymous": false,
      "inputs": [
        {
          "indexed": true,
          "internalType": "address",
          "name": "owner",
          "type": "address"
        },
        {
          "indexed": true,
          "internalType": "address",
          "name": "approved",
          "type": "address"
        },
        {
          "indexed": true,
          "internalType": "uint256",
          "name": "tokenId",
          "type": "uint256"
        }
      ],
      "name": "Approval",
      "type": "event"
    },
    {
      "anonymous": false,
      "inputs": [
        {
          "indexed": true,
          "internalType": "address",
          "name": "owner",
          "type": "address"
        },
        {
          "indexed": true,
          "internalType": "address",
          "name": "operator",
          "type": "address"
        },
        {
          "indexed": false,
          "internalType": "bool",
          "name": "approved",
          "type": "bool"
        }
      ],
      "name": "ApprovalForAll",
      "type": "event"
    },
    {
      "anonymous": false,
      "inputs": [
        {
          "indexed": true,
          "internalType": "address",
          "name": "from",
          "type": "address"
        },
        {
          "indexed": true,
          "internalType": "address",
          "name": "to",
          "type": "address"
        },
        {
          "indexed": true,
          "internalType": "uint256",
          "name": "tokenId",
          "type": "uint256"
        }
      ],
      "name": "Transfer",
      "type": "event"
    },
    {
      "constant": false,
      "inputs": [
        {
          "internalType": "address",
          "name": "to",
          "type": "address"
        },
        {
          "internalType": "uint256",
          "name": "tokenId",
          "type": "uint256"
        }
      ],
      "name": "approve",
      "outputs": [],
      "payable": false,
      "stateMutability": "nonpayable",
      "type": "function"
    },
    {
      "constant": true,
      "inputs": [
        {
          "internalType": "address",
          "name": "owner",
          "type": "address"
        }
      ],
      "name": "balanceOf",
      "outputs": [
        {
          "internalType": "uint256",
          "name": "",
          "type": "uint256"
        }
      ],
      "payable": false,
      "stateMutability": "view",
      "type": "function"
    },
    {
      "constant": true,
      "inputs": [],
      "name": "baseURI",
      "outputs": [
        {
          "internalType": "string",
          "name": "",
          "type": "string"
        }
      ],
      "payable": false,
      "stateMutability": "view",
      "type": "function"
    },
    {
      "constant": true,
      "inputs": [
        {
          "internalType": "uint256",
          "name": "tokenId",
          "type": "uint256"
        }
      ],
      "name": "getApproved",
      "outputs": [
        {
          "internalType": "address",
          "name": "",
          "type": "address"
        }
      ],
      "payable": false,
      "stateMutability": "view",
      "type": "function"
    },
    {
      "constant": true,
      "inputs": [
        {
          "internalType": "address",
          "name": "owner",
          "type": "address"
        },
        {
          "internalType": "address",
          "name": "operator",
          "type": "address"
        }
      ],
      "name": "isApprovedForAll",
      "outputs": [
        {
          "internalType": "bool",
          "name": "",
          "type": "bool"
        }
      ],
      "payable": false,
      "stateMutability": "view",
      "type": "function"
    },
    {
      "constant": true,
      "inputs": [],
      "name": "name",
      "outputs": [
        {
          "internalType": "string",
          "name": "",
          "type": "string"
        }
      ],
      "payable": false,
      "stateMutability": "view",
      "type": "function"
    },
    {
      "constant": true,
      "inputs": [
        {
          "internalType": "uint256",
          "name": "tokenId",
          "type": "uint256"
        }
      ],
      "name": "ownerOf",
      "outputs": [
        {
          "internalType": "address",
          "name": "",
          "type": "address"
        }
      ],
      "payable": false,
      "stateMutability": "view",
      "type": "function"
    },
    {
      "constant": false,
      "inputs": [
        {
          "internalType": "address",
          "name": "from",
          "type": "address"
        },
        {
          "internalType": "address",
          "name": "to",
          "type": "address"
        },
        {
          "internalType": "uint256",
          "name": "tokenId",
          "type": "uint256"
        }
      ],
      "name": "safeTransferFrom",
      "outputs": [],
      "payable": false,
      "stateMutability": "nonpayable",
      "type": "function"
    },
    {
      "constant": false,
      "inputs": [
        {
          "internalType": "address",
          "name": "from",
          "type": "address"
        },
        {
          "internalType": "address",
          "name": "to",
          "type": "address"
        },
        {
          "internalType": "uint256",
          "name": "tokenId",
          "type": "uint256"
        },
        {
          "internalType": "bytes",
          "name": "_data",
          "type": "bytes"
        }
      ],
      "name": "safeTransferFrom",
      "outputs": [],
      "payable": false,
      "stateMutability": "nonpayable",
      "type": "function"
    },
    {
      "constant": false,
      "inputs": [
        {
          "internalType": "address",
          "name": "to",
          "type": "address"
        },
        {
          "internalType": "bool",
          "name": "approved",
          "type": "bool"
        }
      ],
      "name": "setApprovalForAll",
      "outputs": [],
      "payable": false,
      "stateMutability": "nonpayable",
      "type": "function"
    },
    {
      "constant": true,
      "inputs": [
        {
          "internalType": "bytes4",
          "name": "interfaceId",
          "type": "bytes4"
        }
      ],
      "name": "supportsInterface",
      "outputs": [
        {
          "internalType": "bool",
          "name": "",
          "type": "bool"
        }
      ],
      "payable": false,
      "stateMutability": "view",
      "type": "function"
    },
    {
      "constant": true,
      "inputs": [],
      "name": "symbol",
      "outputs": [
        {
          "internalType": "string",
          "name": "",
          "type": "string"
        }
      ],
      "payable": false,
      "stateMutability": "view",
      "type": "function"
    },
    {
      "constant": true,
      "inputs": [
        {
          "internalType": "uint256",
          "name": "index",
          "type": "uint256"
        }
      ],
      "name": "tokenByIndex",
      "outputs": [
        {
          "internalType": "uint256",
          "name": "",
          "type": "uint256"
        }
      ],
      "payable": false,
      "stateMutability": "view",
      "type": "function"
    },
    {
      "constant": true,
      "inputs": [
        {
          "internalType": "address",
          "name": "owner",
          "type": "address"
        },
        {
          "internalType": "uint256",
          "name": "index",
          "type": "uint256"
        }
      ],
      "name": "tokenOfOwnerByIndex",
      "outputs": [
        {
          "internalType": "uint256",
          "name": "",
          "type": "uint256"
        }
      ],
      "payable": false,
      "stateMutability": "view",
      "type": "function"
    },
    {
      "constant": true,
      "inputs": [
        {
          "internalType": "uint256",
          "name": "tokenId",
          "type": "uint256"
        }
      ],
      "name": "tokenURI",
      "outputs": [
        {
          "internalType": "string",
          "name": "",
          "type": "string"
        }
      ],
      "payable": false,
      "stateMutability": "view",
      "type": "function"
    },
    {
      "constant": true,
      "inputs": [],
      "name": "totalSupply",
      "outputs": [
        {
          "internalType": "uint256",
          "name": "",
          "type": "uint256"
        }
      ],
      "payable": false,
      "stateMutability": "view",
      "type": "function"
    },
    {
      "constant": false,
      "inputs": [
        {
          "internalType": "address",
          "name": "from",
          "type": "address"
        },
        {
          "internalType": "address",
          "name": "to",
          "type": "address"
        },
        {
          "internalType": "uint256",
          "name": "tokenId",
          "type": "uint256"
        }
      ],
      "name": "transferFrom",
      "outputs": [],
      "payable": false,
      "stateMutability": "nonpayable",
      "type": "function"
    },
    {
      "constant": false,
      "inputs": [
        {
          "internalType": "uint256",
          "name": "ApplicationNo",
          "type": "uint256"
        },
        {
          "internalType": "address",
          "name": "wallet_address",
          "type": "address"
        },
        {
          "internalType": "string",
          "name": "hash",
          "type": "string"
        }
      ],
      "name": "saveApplication",
      "outputs": [
        {
          "internalType": "bool",
          "name": "",
          "type": "bool"
        }
      ],
      "payable": false,
      "stateMutability": "nonpayable",
      "type": "function"
    },
    {
      "constant": false,
      "inputs": [
        {
          "internalType": "uint256",
          "name": "ApplicationNo",
          "type": "uint256"
        },
        {
          "internalType": "string",
          "name": "hash",
          "type": "string"
        }
      ],
      "name": "updateApplication",
      "outputs": [
        {
          "internalType": "bool",
          "name": "",
          "type": "bool"
        }
      ],
      "payable": false,
      "stateMutability": "nonpayable",
      "type": "function"
    },
    {
      "constant": true,
      "inputs": [
        {
          "internalType": "uint256",
          "name": "ApplicationNo",
          "type": "uint256"
        }
      ],
      "name": "getApplicationData",
      "outputs": [
        {
          "internalType": "string",
          "name": "",
          "type": "string"
        }
      ],
      "payable": false,
      "stateMutability": "view",
      "type": "function"
    },
    {
      "constant": true,
      "inputs": [
        {
          "internalType": "address",
          "name": "wallet_address",
          "type": "address"
        }
      ],
      "name": "getUserApplication",
      "outputs": [
        {
          "internalType": "uint256[]",
          "name": "",
          "type": "uint256[]"
        }
      ],
      "payable": false,
      "stateMutability": "view",
      "type": "function"
    },
    {
      "constant": true,
      "inputs": [],
      "name": "getApplicationList",
      "outputs": [
        {
          "internalType": "uint256[]",
          "name": "",
          "type": "uint256[]"
        }
      ],
      "payable": false,
      "stateMutability": "view",
      "type": "function"
    },
    {
      "constant": false,
      "inputs": [
        {
          "internalType": "address",
          "name": "toAddress",
          "type": "address"
        },
        {
          "internalType": "uint256",
          "name": "tokenId",
          "type": "uint256"
        },
        {
          "internalType": "string",
          "name": "tokenURI",
          "type": "string"
        }
      ],
      "name": "mintToken",
      "outputs": [
        {
          "internalType": "uint256",
          "name": "",
          "type": "uint256"
        }
      ],
      "payable": false,
      "stateMutability": "nonpayable",
      "type": "function"
    },
    {
      "constant": true,
      "inputs": [
        {
          "internalType": "uint256",
          "name": "_tokenId",
          "type": "uint256"
        }
      ],
      "name": "checkIfTokenExist",
      "outputs": [
        {
          "internalType": "address",
          "name": "",
          "type": "address"
        }
      ],
      "payable": false,
      "stateMutability": "view",
      "type": "function"
    },
    {
      "constant": false,
      "inputs": [
        {
          "internalType": "address",
          "name": "acc",
          "type": "address"
        },
        {
          "internalType": "uint256[]",
          "name": "tArray",
          "type": "uint256[]"
        }
      ],
      "name": "saveTokenData",
      "outputs": [
        {
          "internalType": "bool",
          "name": "",
          "type": "bool"
        }
      ],
      "payable": false,
      "stateMutability": "nonpayable",
      "type": "function"
    },
    {
      "constant": true,
      "inputs": [
        {
          "internalType": "address",
          "name": "acc",
          "type": "address"
        }
      ],
      "name": "popToken",
      "outputs": [
        {
          "internalType": "uint256",
          "name": "",
          "type": "uint256"
        }
      ],
      "payable": false,
      "stateMutability": "view",
      "type": "function"
    }
  ],
  "bytecode": "0x60806040523480156200001157600080fd5b506040805180820182526005815264135e53919560da1b602080830191909152825180840190935260048352631353919560e21b90830152908181620000676301ffc9a760e01b6001600160e01b03620000ee16565b620000826380ac58cd60e01b6001600160e01b03620000ee16565b6200009d63780e9d6360e01b6001600160e01b03620000ee16565b8151620000b290600990602085019062000173565b508051620000c890600a90602084019062000173565b50620000e4635b5e139f60e01b6001600160e01b03620000ee16565b5050505062000218565b6001600160e01b031980821614156200014e576040805162461bcd60e51b815260206004820152601c60248201527f4552433136353a20696e76616c696420696e7465726661636520696400000000604482015290519081900360640190fd5b6001600160e01b0319166000908152602081905260409020805460ff19166001179055565b828054600181600116156101000203166002900490600052602060002090601f016020900481019282601f10620001b657805160ff1916838001178555620001e6565b82800160010185558215620001e6579182015b82811115620001e6578251825591602001919060010190620001c9565b50620001f4929150620001f8565b5090565b6200021591905b80821115620001f45760008155600101620001ff565b90565b6120f780620002286000396000f3fe608060405234801561001057600080fd5b506004361061018e5760003560e01c80637cc0d158116100de578063b88d4fde11610097578063c87b56dd11610071578063c87b56dd14610708578063caf64c2614610725578063e985e9c5146107d6578063f76e8ba9146108045761018e565b8063b88d4fde14610583578063c545795a14610647578063c5f01b59146107005761018e565b80637cc0d15814610477578063820b606d146104945780638c3692c3146104b157806395d89b41146104d7578063a22cb465146104df578063a334073b1461050d5761018e565b806323b872dd1161014b5780634f6ccce7116101255780634f6ccce71461040f5780636352211e1461042c5780636c0360eb1461044957806370a08231146104515761018e565b806323b872dd146103775780632f745c59146103ad57806342842e0e146103d95761018e565b806301ffc9a71461019357806306fdde03146101ce578063081812fc1461024b578063095ea7b314610284578063151dd219146102b257806318160ddd1461035d575b600080fd5b6101ba600480360360208110156101a957600080fd5b50356001600160e01b0319166108bd565b604080519115158252519081900360200190f35b6101d66108e0565b6040805160208082528351818301528351919283929083019185019080838360005b838110156102105781810151838201526020016101f8565b50505050905090810190601f16801561023d5780820380516001836020036101000a031916815260200191505b509250505060405180910390f35b6102686004803603602081101561026157600080fd5b5035610977565b604080516001600160a01b039092168252519081900360200190f35b6102b06004803603604081101561029a57600080fd5b506001600160a01b0381351690602001356109d9565b005b6101ba600480360360408110156102c857600080fd5b81359190810190604081016020820135600160201b8111156102e957600080fd5b8201836020820111156102fb57600080fd5b803590602001918460018302840111600160201b8311171561031c57600080fd5b91908080601f016020809104026020016040519081016040528093929190818152602001838380828437600092019190915250929550610b01945050505050565b610365610b29565b60408051918252519081900360200190f35b6102b06004803603606081101561038d57600080fd5b506001600160a01b03813581169160208101359091169060400135610b2f565b610365600480360360408110156103c357600080fd5b506001600160a01b038135169060200135610b8b565b6102b0600480360360608110156103ef57600080fd5b506001600160a01b03813581169160208101359091169060400135610c0a565b6103656004803603602081101561042557600080fd5b5035610c25565b6102686004803603602081101561044257600080fd5b5035610c8b565b6101d6610ce5565b6103656004803603602081101561046757600080fd5b50356001600160a01b0316610d46565b6102686004803603602081101561048d57600080fd5b5035610dae565b6101d6600480360360208110156104aa57600080fd5b5035610dfc565b610365600480360360208110156104c757600080fd5b50356001600160a01b0316610e9d565b6101d6610ebf565b6102b0600480360360408110156104f557600080fd5b506001600160a01b0381351690602001351515610f20565b6105336004803603602081101561052357600080fd5b50356001600160a01b0316611025565b60408051602080825283518183015283519192839290830191858101910280838360005b8381101561056f578181015183820152602001610557565b505050509050019250505060405180910390f35b6102b06004803603608081101561059957600080fd5b6001600160a01b03823581169260208101359091169160408201359190810190608081016060820135600160201b8111156105d357600080fd5b8201836020820111156105e557600080fd5b803590602001918460018302840111600160201b8311171561060657600080fd5b91908080601f016020809104026020016040519081016040528093929190818152602001838380828437600092019190915250929550611090945050505050565b6101ba6004803603606081101561065d57600080fd5b8135916001600160a01b0360208201351691810190606081016040820135600160201b81111561068c57600080fd5b82018360208201111561069e57600080fd5b803590602001918460018302840111600160201b831117156106bf57600080fd5b91908080601f0160208091040260200160405190810160405280939291908181526020018383808284376000920191909152509295506110ee945050505050565b610533611183565b6101d66004803603602081101561071e57600080fd5b50356111da565b6101ba6004803603604081101561073b57600080fd5b6001600160a01b038235169190810190604081016020820135600160201b81111561076557600080fd5b82018360208201111561077757600080fd5b803590602001918460208302840111600160201b8311171561079857600080fd5b9190808060200260200160405190810160405280939291908181526020018383602002808284376000920191909152509295506113a6945050505050565b6101ba600480360360408110156107ec57600080fd5b506001600160a01b0381358116916020013516611404565b6103656004803603606081101561081a57600080fd5b6001600160a01b0382351691602081013591810190606081016040820135600160201b81111561084957600080fd5b82018360208201111561085b57600080fd5b803590602001918460018302840111600160201b8311171561087c57600080fd5b91908080601f016020809104026020016040519081016040528093929190818152602001838380828437600092019190915250929550611432945050505050565b6001600160e01b0319811660009081526020819052604090205460ff165b919050565b60098054604080516020601f600260001961010060018816150201909516949094049384018190048102820181019092528281526060939092909183018282801561096c5780601f106109415761010080835404028352916020019161096c565b820191906000526020600020905b81548152906001019060200180831161094f57829003601f168201915b505050505090505b90565b600061098282611451565b6109bd5760405162461bcd60e51b815260040180806020018281038252602c815260200180611f95602c913960400191505060405180910390fd5b506000908152600260205260409020546001600160a01b031690565b60006109e482610c8b565b9050806001600160a01b0316836001600160a01b03161415610a375760405162461bcd60e51b81526004018080602001828103825260218152602001806120456021913960400191505060405180910390fd5b806001600160a01b0316610a4961146e565b6001600160a01b03161480610a6a5750610a6a81610a6561146e565b611404565b610aa55760405162461bcd60e51b8152600401808060200182810382526038815260200180611f0a6038913960400191505060405180910390fd5b60008281526002602052604080822080546001600160a01b0319166001600160a01b0387811691821790925591518593918516917f8c5be1e5ebec7d5bd14f71427d1e84f3dd0314c0f7b2291e5b200ac8c7c3b92591a4505050565b6000828152600e6020908152604082208351610b1f92850190611da4565b5060019392505050565b60075490565b610b40610b3a61146e565b82611472565b610b7b5760405162461bcd60e51b81526004018080602001828103825260318152602001806120666031913960400191505060405180910390fd5b610b8683838361150e565b505050565b6000610b9683610d46565b8210610bd35760405162461bcd60e51b815260040180806020018281038252602b815260200180611e5d602b913960400191505060405180910390fd5b6001600160a01b0383166000908152600560205260409020805483908110610bf757fe5b9060005260206000200154905092915050565b610b8683838360405180602001604052806000815250611090565b6000610c2f610b29565b8210610c6c5760405162461bcd60e51b815260040180806020018281038252602c815260200180612097602c913960400191505060405180910390fd5b60078281548110610c7957fe5b90600052602060002001549050919050565b6000818152600160205260408120546001600160a01b031680610cdf5760405162461bcd60e51b8152600401808060200182810382526029815260200180611f6c6029913960400191505060405180910390fd5b92915050565b600b8054604080516020601f600260001961010060018816150201909516949094049384018190048102820181019092528281526060939092909183018282801561096c5780601f106109415761010080835404028352916020019161096c565b60006001600160a01b038216610d8d5760405162461bcd60e51b815260040180806020018281038252602a815260200180611f42602a913960400191505060405180910390fd5b6001600160a01b0382166000908152600360205260409020610cdf9061152d565b6000610db982611451565b610df3576040805162461bcd60e51b81526020600482015260066024820152654572726f722160d01b604482015290519081900360640190fd5b610cdf82610c8b565b6000818152600e602090815260409182902080548351601f6002600019610100600186161502019093169290920491820184900484028101840190945280845260609392830182828015610e915780601f10610e6657610100808354040283529160200191610e91565b820191906000526020600020905b815481529060010190602001808311610e7457829003601f168201915b50505050509050919050565b6001600160a01b038116600090815260106020526040812080548290610c7957fe5b600a8054604080516020601f600260001961010060018816150201909516949094049384018190048102820181019092528281526060939092909183018282801561096c5780601f106109415761010080835404028352916020019161096c565b610f2861146e565b6001600160a01b0316826001600160a01b03161415610f8e576040805162461bcd60e51b815260206004820152601960248201527f4552433732313a20617070726f766520746f2063616c6c657200000000000000604482015290519081900360640190fd5b8060046000610f9b61146e565b6001600160a01b03908116825260208083019390935260409182016000908120918716808252919093529120805460ff191692151592909217909155610fdf61146e565b60408051841515815290516001600160a01b0392909216917f17307eab39ab6107e8899845ad3d59bd9653f200f220920489ca2b5937696c319181900360200190a35050565b6001600160a01b0381166000908152600f6020908152604091829020805483518184028101840190945280845260609392830182828015610e9157602002820191906000526020600020905b8154815260200190600101908083116110715750505050509050919050565b6110a161109b61146e565b83611472565b6110dc5760405162461bcd60e51b81526004018080602001828103825260318152602001806120666031913960400191505060405180910390fd5b6110e884848484611531565b50505050565b6000838152600e602090815260408220835161110c92850190611da4565b506001600160a01b0383166000908152600f602090815260408220805460018181018355918452918320909101869055600d805491820181559091527fd7b6990105719101dabeb77144f2a3385c8033acd3af97e9423a695e81ad1eb501849055611178838584611432565b506001949350505050565b6060600d80548060200260200160405190810160405280929190818152602001828054801561096c57602002820191906000526020600020905b8154815260200190600101908083116111bd575050505050905090565b60606111e582611451565b6112205760405162461bcd60e51b815260040180806020018281038252602f815260200180612016602f913960400191505060405180910390fd5b6000828152600c602090815260409182902080548351601f60026000196101006001861615020190931692909204918201849004840281018401909452808452606093928301828280156112b55780601f1061128a576101008083540402835291602001916112b5565b820191906000526020600020905b81548152906001019060200180831161129857829003601f168201915b505050505090508051600014156112dc5750506040805160208101909152600081526108db565b600b81604051602001808380546001816001161561010002031660029004801561133d5780601f1061131b57610100808354040283529182019161133d565b820191906000526020600020905b815481529060010190602001808311611329575b5050825160208401908083835b602083106113695780518252601f19909201916020918201910161134a565b6001836020036101000a038019825116818451168082178552505050505050905001925050506040516020818303038152906040529150506108db565b6000805b8251811015610b1f576001600160a01b038416600090815260106020526040902083518490839081106113d957fe5b60209081029190910181015182546001818101855560009485529290932090920191909155016113aa565b6001600160a01b03918216600090815260046020908152604080832093909416825291909152205460ff1690565b60008261143f8582611583565b61144981846115a4565b949350505050565b6000908152600160205260409020546001600160a01b0316151590565b3390565b600061147d82611451565b6114b85760405162461bcd60e51b815260040180806020018281038252602c815260200180611ede602c913960400191505060405180910390fd5b60006114c383610c8b565b9050806001600160a01b0316846001600160a01b031614806114fe5750836001600160a01b03166114f384610977565b6001600160a01b0316145b8061144957506114498185611404565b611519838383611607565b611523838261174b565b610b868282611840565b5490565b61153c84848461150e565b6115488484848461187e565b6110e85760405162461bcd60e51b8152600401808060200182810382526032815260200180611e886032913960400191505060405180910390fd5b61158d8282611ab9565b6115978282611840565b6115a081611bea565b5050565b6115ad82611451565b6115e85760405162461bcd60e51b815260040180806020018281038252602c815260200180611fc1602c913960400191505060405180910390fd5b6000828152600c602090815260409091208251610b8692840190611da4565b826001600160a01b031661161a82610c8b565b6001600160a01b03161461165f5760405162461bcd60e51b8152600401808060200182810382526029815260200180611fed6029913960400191505060405180910390fd5b6001600160a01b0382166116a45760405162461bcd60e51b8152600401808060200182810382526024815260200180611eba6024913960400191505060405180910390fd5b6116ad81611c2e565b6001600160a01b03831660009081526003602052604090206116ce90611c6b565b6001600160a01b03821660009081526003602052604090206116ef90611c82565b60008181526001602052604080822080546001600160a01b0319166001600160a01b0386811691821790925591518493918716917fddf252ad1be2c89b69c2b068fc378daa952ba7f163c4a11628f55a4df523b3ef91a4505050565b6001600160a01b03821660009081526005602052604081205461177590600163ffffffff611c8b16565b600083815260066020526040902054909150808214611810576001600160a01b03841660009081526005602052604081208054849081106117b257fe5b906000526020600020015490508060056000876001600160a01b03166001600160a01b0316815260200190815260200160002083815481106117f057fe5b600091825260208083209091019290925591825260069052604090208190555b6001600160a01b0384166000908152600560205260409020805490611839906000198301611e22565b5050505050565b6001600160a01b0390911660009081526005602081815260408084208054868652600684529185208290559282526001810183559183529091200155565b6000611892846001600160a01b0316611cd4565b61189e57506001611449565b600060606001600160a01b038616630a85bd0160e11b6118bc61146e565b89888860405160240180856001600160a01b03166001600160a01b03168152602001846001600160a01b03166001600160a01b0316815260200183815260200180602001828103825283818151815260200191508051906020019080838360005b8381101561193557818101518382015260200161191d565b50505050905090810190601f1680156119625780820380516001836020036101000a031916815260200191505b5060408051601f198184030181529181526020820180516001600160e01b03166001600160e01b0319909a16999099178952518151919890975087965094509250829150849050835b602083106119ca5780518252601f1990920191602091820191016119ab565b6001836020036101000a0380198251168184511680821785525050505050509050019150506000604051808303816000865af19150503d8060008114611a2c576040519150601f19603f3d011682016040523d82523d6000602084013e611a31565b606091505b509150915081611a8257805115611a4b5780518082602001fd5b60405162461bcd60e51b8152600401808060200182810382526032815260200180611e886032913960400191505060405180910390fd5b6000818060200190516020811015611a9957600080fd5b50516001600160e01b031916630a85bd0160e11b14935061144992505050565b6001600160a01b038216611b14576040805162461bcd60e51b815260206004820181905260248201527f4552433732313a206d696e7420746f20746865207a65726f2061646472657373604482015290519081900360640190fd5b611b1d81611451565b15611b6f576040805162461bcd60e51b815260206004820152601c60248201527f4552433732313a20746f6b656e20616c7265616479206d696e74656400000000604482015290519081900360640190fd5b600081815260016020908152604080832080546001600160a01b0319166001600160a01b038716908117909155835260039091529020611bae90611c82565b60405181906001600160a01b038416906000907fddf252ad1be2c89b69c2b068fc378daa952ba7f163c4a11628f55a4df523b3ef908290a45050565b600780546000838152600860205260408120829055600182018355919091527fa66cc928b5edb82af9bd49922954155ab7b0942694bea4ce44661d9a8736c6880155565b6000818152600260205260409020546001600160a01b031615611c6857600081815260026020526040902080546001600160a01b03191690555b50565b8054611c7e90600163ffffffff611c8b16565b9055565b80546001019055565b6000611ccd83836040518060400160405280601e81526020017f536166654d6174683a207375627472616374696f6e206f766572666c6f770000815250611d0d565b9392505050565b6000813f7fc5d2460186f7233c927e7db2dcc703c0e500b653ca82273b7bfad8045d85a470818114801590611449575050151592915050565b60008184841115611d9c5760405162461bcd60e51b81526004018080602001828103825283818151815260200191508051906020019080838360005b83811015611d61578181015183820152602001611d49565b50505050905090810190601f168015611d8e5780820380516001836020036101000a031916815260200191505b509250505060405180910390fd5b505050900390565b828054600181600116156101000203166002900490600052602060002090601f016020900481019282601f10611de557805160ff1916838001178555611e12565b82800160010185558215611e12579182015b82811115611e12578251825591602001919060010190611df7565b50611e1e929150611e42565b5090565b815481835581811115610b8657600083815260209020610b869181019083015b61097491905b80821115611e1e5760008155600101611e4856fe455243373231456e756d657261626c653a206f776e657220696e646578206f7574206f6620626f756e64734552433732313a207472616e7366657220746f206e6f6e20455243373231526563656976657220696d706c656d656e7465724552433732313a207472616e7366657220746f20746865207a65726f20616464726573734552433732313a206f70657261746f7220717565727920666f72206e6f6e6578697374656e7420746f6b656e4552433732313a20617070726f76652063616c6c6572206973206e6f74206f776e6572206e6f7220617070726f76656420666f7220616c6c4552433732313a2062616c616e636520717565727920666f7220746865207a65726f20616464726573734552433732313a206f776e657220717565727920666f72206e6f6e6578697374656e7420746f6b656e4552433732313a20617070726f76656420717565727920666f72206e6f6e6578697374656e7420746f6b656e4552433732314d657461646174613a2055524920736574206f66206e6f6e6578697374656e7420746f6b656e4552433732313a207472616e73666572206f6620746f6b656e2074686174206973206e6f74206f776e4552433732314d657461646174613a2055524920717565727920666f72206e6f6e6578697374656e7420746f6b656e4552433732313a20617070726f76616c20746f2063757272656e74206f776e65724552433732313a207472616e736665722063616c6c6572206973206e6f74206f776e6572206e6f7220617070726f766564455243373231456e756d657261626c653a20676c6f62616c20696e646578206f7574206f6620626f756e6473a265627a7a723158204404965e7a7caddc2f728d48e1c0a95108886ce83ea4ee2e6314da8540117ff064736f6c63430005100032",
  "source": "// SPDX-License-Identifier: GPL-3.0\npragma solidity >=0.4.16 <0.9.0;\n\nimport \"@openzeppelin/contracts/token/ERC721/ERC721Full.sol\";\n\ncontract ApplicationData is ERC721Full {\n    constructor() public ERC721Full(\"MyNFT\", \"MNFT\") {}\n    \n    uint256[] ApplicationReceived;\n    //struct to save applicationhash\n    struct Application {\n        string applicationHash;\n    }\n    mapping(uint256 => Application) ApplicationTable;\n\n    /// @dev used to save order for consignee\n    struct ApplicationList {\n        uint256[] applicationNumberList;\n        string[] appHash;\n    }\n    mapping(address => ApplicationList) UserApplications;\n\n    function saveApplication(\n        uint256 ApplicationNo,\n        address wallet_address,\n        string memory hash\n    ) public returns (bool) {\n        ApplicationTable[ApplicationNo].applicationHash = hash; // Mapping Application No with Application Hash value\n\n        // UserApplications[wallet_address].appHash.push(hash); // Mapping Wallet with Application Hash value\n\n        UserApplications[wallet_address].applicationNumberList.push(\n            ApplicationNo\n        ); //Mapping User Wallet with applicationno.\n\n        ApplicationReceived.push(ApplicationNo); //push all application to an array\n\n        mintToken(wallet_address, ApplicationNo, hash);\n\n        return true;\n    }\n\n    function updateApplication(\n        uint256 ApplicationNo,\n        string memory hash\n    ) public returns (bool) {\n        ApplicationTable[ApplicationNo].applicationHash = hash; // Mapping Application No with Application Hash value\n        return true;\n    }\n\n    // Get Application Hash for an Application No.\n    function getApplicationData(\n        uint256 ApplicationNo\n    ) public view returns (string memory) {\n        return ApplicationTable[ApplicationNo].applicationHash;\n    }\n\n    //Get application no for a user\n    function getUserApplication(\n        address wallet_address\n    ) public view returns (uint256[] memory) {\n        return (UserApplications[wallet_address].applicationNumberList);\n    }\n\n    //  //Get application hash array for a user\n    // function getUserApplicationHashList(\n    //     address wallet_address\n    // ) public view returns (string[] memory) {\n    //     return (\n    //                    UserApplications[wallet_address].appHash\n\n    //     );\n    // }\n\n    //Return total applcations received\n    function getApplicationList() public view returns (uint256[] memory) {\n        return ApplicationReceived;\n    }\n\n    //ERC721 Token Starts\n    function mintToken(\n        address toAddress,\n        uint256 tokenId,\n        string memory tokenURI\n    ) public returns (uint256) {\n        // uint256 newItemId = _tokenIds.current();\n        uint256 newItemId = tokenId;\n        _mint(toAddress, newItemId);\n        _setTokenURI(newItemId, tokenURI);\n\n        return newItemId;\n    }\n\n    function checkIfTokenExist(uint _tokenId) external view returns (address) {\n        require(_exists(_tokenId), \"Error!\");\n        return ownerOf(_tokenId);\n    }\n\n    //ERC721 Ends\n    //********************unique token id for application************************************ */\n    struct Tokens {\n        uint256[] ERC721Tokens;\n    }\n    mapping(address => Tokens) TokenData;\n\n    function saveTokenData(\n        address acc,\n        uint256[] memory tArray\n    ) public returns (bool) {\n        for (uint k = 0; k < tArray.length; k++) {\n            TokenData[acc].ERC721Tokens.push(tArray[k]);\n        }\n        return true;\n    }\n\n    function popToken(address acc) public view returns (uint256) {\n        return TokenData[acc].ERC721Tokens[0];\n    }\n}\n",
  "sourcePath": "/home/kottackal/Desktop/farm_certification_react_template2/src/contracts/ApplicationData.sol",
  "compiler": {
    "name": "solc",
    "version": "0.5.16+commit.9c3226ce.Emscripten.clang"
  },
  "schemaVersion": "3.4.3",
  "updatedAt": "2023-04-12T20:27:27.829Z",
  "networkType": "ethereum",
  "devdoc": {
    "methods": {
      "approve(address,uint256)": {
        "details": "Approves another address to transfer the given token ID The zero address indicates there is no approved address. There can only be one approved address per token at a given time. Can only be called by the token owner or an approved operator.",
        "params": {
          "to": "address to be approved for the given token ID",
          "tokenId": "uint256 ID of the token to be approved"
        }
      },
      "balanceOf(address)": {
        "details": "Gets the balance of the specified address.",
        "params": {
          "owner": "address to query the balance of"
        },
        "return": "uint256 representing the amount owned by the passed address"
      },
      "baseURI()": {
        "details": "Returns the base URI set via {_setBaseURI}. This will be automatically added as a preffix in {tokenURI} to each token's URI, when they are non-empty.    * _Available since v2.5.0._"
      },
      "getApproved(uint256)": {
        "details": "Gets the approved address for a token ID, or zero if no address set Reverts if the token ID does not exist.",
        "params": {
          "tokenId": "uint256 ID of the token to query the approval of"
        },
        "return": "address currently approved for the given token ID"
      },
      "isApprovedForAll(address,address)": {
        "details": "Tells whether an operator is approved by a given owner.",
        "params": {
          "operator": "operator address which you want to query the approval of",
          "owner": "owner address which you want to query the approval of"
        },
        "return": "bool whether the given operator is approved by the given owner"
      },
      "name()": {
        "details": "Gets the token name.",
        "return": "string representing the token name"
      },
      "ownerOf(uint256)": {
        "details": "Gets the owner of the specified token ID.",
        "params": {
          "tokenId": "uint256 ID of the token to query the owner of"
        },
        "return": "address currently marked as the owner of the given token ID"
      },
      "safeTransferFrom(address,address,uint256)": {
        "details": "Safely transfers the ownership of a given token ID to another address If the target address is a contract, it must implement {IERC721Receiver-onERC721Received}, which is called upon a safe transfer, and return the magic value `bytes4(keccak256(\"onERC721Received(address,address,uint256,bytes)\"))`; otherwise, the transfer is reverted. Requires the msg.sender to be the owner, approved, or operator",
        "params": {
          "from": "current owner of the token",
          "to": "address to receive the ownership of the given token ID",
          "tokenId": "uint256 ID of the token to be transferred"
        }
      },
      "safeTransferFrom(address,address,uint256,bytes)": {
        "details": "Safely transfers the ownership of a given token ID to another address If the target address is a contract, it must implement {IERC721Receiver-onERC721Received}, which is called upon a safe transfer, and return the magic value `bytes4(keccak256(\"onERC721Received(address,address,uint256,bytes)\"))`; otherwise, the transfer is reverted. Requires the _msgSender() to be the owner, approved, or operator",
        "params": {
          "_data": "bytes data to send along with a safe transfer check",
          "from": "current owner of the token",
          "to": "address to receive the ownership of the given token ID",
          "tokenId": "uint256 ID of the token to be transferred"
        }
      },
      "setApprovalForAll(address,bool)": {
        "details": "Sets or unsets the approval of a given operator An operator is allowed to transfer all tokens of the sender on their behalf.",
        "params": {
          "approved": "representing the status of the approval to be set",
          "to": "operator address to set the approval"
        }
      },
      "supportsInterface(bytes4)": {
        "details": "See {IERC165-supportsInterface}.     * Time complexity O(1), guaranteed to always use less than 30 000 gas."
      },
      "symbol()": {
        "details": "Gets the token symbol.",
        "return": "string representing the token symbol"
      },
      "tokenByIndex(uint256)": {
        "details": "Gets the token ID at a given index of all the tokens in this contract Reverts if the index is greater or equal to the total number of tokens.",
        "params": {
          "index": "uint256 representing the index to be accessed of the tokens list"
        },
        "return": "uint256 token ID at the given index of the tokens list"
      },
      "tokenOfOwnerByIndex(address,uint256)": {
        "details": "Gets the token ID at a given index of the tokens list of the requested owner.",
        "params": {
          "index": "uint256 representing the index to be accessed of the requested tokens list",
          "owner": "address owning the tokens list to be accessed"
        },
        "return": "uint256 token ID at the given index of the tokens list owned by the requested address"
      },
      "tokenURI(uint256)": {
        "details": "Returns the URI for a given token ID. May return an empty string.     * If the token's URI is non-empty and a base URI was set (via {_setBaseURI}), it will be added to the token ID's URI as a prefix.     * Reverts if the token ID does not exist."
      },
      "totalSupply()": {
        "details": "Gets the total amount of tokens stored by the contract.",
        "return": "uint256 representing the total amount of tokens"
      },
      "transferFrom(address,address,uint256)": {
        "details": "Transfers the ownership of a given token ID to another address. Usage of this method is discouraged, use {safeTransferFrom} whenever possible. Requires the msg.sender to be the owner, approved, or operator.",
        "params": {
          "from": "current owner of the token",
          "to": "address to receive the ownership of the given token ID",
          "tokenId": "uint256 ID of the token to be transferred"
        }
      }
    }
  },
  "userdoc": {
    "methods": {}
  }
}