{
  "contractName": "UserSignup",
  "abi": [
    {
      "constant": true,
      "inputs": [
        {
          "internalType": "address",
          "name": "",
          "type": "address"
        }
      ],
      "name": "register",
      "outputs": [
        {
          "internalType": "string",
          "name": "role",
          "type": "string"
        },
        {
          "internalType": "string",
          "name": "userHash",
          "type": "string"
        }
      ],
      "payable": false,
      "stateMutability": "view",
      "type": "function"
    },
    {
      "constant": false,
      "inputs": [
        {
          "internalType": "address",
          "name": "account",
          "type": "address"
        },
        {
          "internalType": "string",
          "name": "hash",
          "type": "string"
        },
        {
          "internalType": "string",
          "name": "urole",
          "type": "string"
        }
      ],
      "name": "savesignup",
      "outputs": [
        {
          "internalType": "bool",
          "name": "",
          "type": "bool"
        }
      ],
      "payable": true,
      "stateMutability": "payable",
      "type": "function"
    },
    {
      "constant": true,
      "inputs": [
        {
          "internalType": "address",
          "name": "account",
          "type": "address"
        }
      ],
      "name": "userRole",
      "outputs": [
        {
          "internalType": "string",
          "name": "",
          "type": "string"
        }
      ],
      "payable": false,
      "stateMutability": "view",
      "type": "function"
    },
    {
      "constant": true,
      "inputs": [
        {
          "internalType": "address",
          "name": "account",
          "type": "address"
        }
      ],
      "name": "logindata",
      "outputs": [
        {
          "internalType": "string",
          "name": "",
          "type": "string"
        }
      ],
      "payable": false,
      "stateMutability": "view",
      "type": "function"
    }
  ],
  "bytecode": "0x608060405234801561001057600080fd5b50610727806100206000396000f3fe60806040526004361061003f5760003560e01c80632b64ddee146100445780634420e486146100ec578063534f5680146101fd57806362454f9314610230575b600080fd5b34801561005057600080fd5b506100776004803603602081101561006757600080fd5b50356001600160a01b0316610381565b6040805160208082528351818301528351919283929083019185019080838360005b838110156100b1578181015183820152602001610099565b50505050905090810190601f1680156100de5780820380516001836020036101000a031916815260200191505b509250505060405180910390f35b3480156100f857600080fd5b5061011f6004803603602081101561010f57600080fd5b50356001600160a01b031661044a565b604051808060200180602001838103835285818151815260200191508051906020019080838360005b83811015610160578181015183820152602001610148565b50505050905090810190601f16801561018d5780820380516001836020036101000a031916815260200191505b50838103825284518152845160209182019186019080838360005b838110156101c05781810151838201526020016101a8565b50505050905090810190601f1680156101ed5780820380516001836020036101000a031916815260200191505b5094505050505060405180910390f35b34801561020957600080fd5b506100776004803603602081101561022057600080fd5b50356001600160a01b0316610586565b61036d6004803603606081101561024657600080fd5b6001600160a01b03823516919081019060408101602082013564010000000081111561027157600080fd5b82018360208201111561028357600080fd5b803590602001918460018302840111640100000000831117156102a557600080fd5b91908080601f01602080910402602001604051908101604052809392919081815260200183838082843760009201919091525092959493602081019350359150506401000000008111156102f857600080fd5b82018360208201111561030a57600080fd5b8035906020019184600183028401116401000000008311171561032c57600080fd5b91908080601f0160208091040260200160405190810160405280939291908181526020018383808284376000920191909152509295506105f8945050505050565b604080519115158252519081900360200190f35b6060600080836001600160a01b03166001600160a01b031681526020019081526020016000206001018054600181600116156101000203166002900480601f01602080910402602001604051908101604052809291908181526020018280546001816001161561010002031660029004801561043e5780601f106104135761010080835404028352916020019161043e565b820191906000526020600020905b81548152906001019060200180831161042157829003601f168201915b50505050509050919050565b6000602081815291815260409081902080548251601f6002600019610100600186161502019093169290920491820185900485028101850190935280835290928391908301828280156104de5780601f106104b3576101008083540402835291602001916104de565b820191906000526020600020905b8154815290600101906020018083116104c157829003601f168201915b505050505090806001018054600181600116156101000203166002900480601f01602080910402602001604051908101604052809291908181526020018280546001816001161561010002031660029004801561057c5780601f106105515761010080835404028352916020019161057c565b820191906000526020600020905b81548152906001019060200180831161055f57829003601f168201915b5050505050905082565b6001600160a01b0381166000908152602081815260409182902080548351601f600260001961010060018616150201909316929092049182018490048402810184019094528084526060939283018282801561043e5780601f106104135761010080835404028352916020019161043e565b6001600160a01b0383166000908152602081815260408220845161062492600190920191860190610657565b506001600160a01b038416600090815260208181526040909120835161064c92850190610657565b506001949350505050565b828054600181600116156101000203166002900490600052602060002090601f016020900481019282601f1061069857805160ff19168380011785556106c5565b828001600101855582156106c5579182015b828111156106c55782518255916020019190600101906106aa565b506106d19291506106d5565b5090565b6106ef91905b808211156106d157600081556001016106db565b9056fea265627a7a72315820b8b37c0bcd87fb39439d8b611f3150782bcef99b908fe0cf7232f9888c3a774864736f6c63430005100032",
  "source": "// SPDX-License-Identifier: GPL-3.0\npragma solidity >=0.4.16 <0.9.0;\n\n/// @title User Registration\n/// @author Jisa\n/// @notice Use this contract for saving and retreiving registered users\n\ncontract UserSignup {\n    //sign up or login\n    struct reg {\n        string role;\n        string userHash;\n    }\n    mapping(address => reg) public register;\n\n    function savesignup(\n        address account,\n        string memory hash,\n        string memory urole\n    ) public payable returns (bool) {\n        register[account].userHash = hash;\n        register[account].role = urole;\n        return true;\n    }\n\n    function userRole(address account) public view returns (string memory) {\n        return (register[account].role);\n    }\n\n    function logindata(address account) public view returns (string memory) {\n        return (register[account].userHash);\n    }\n}\n",
  "sourcePath": "/home/kottackal/Desktop/farm_certification_react_template2/src/contracts/UserSignup.sol",
  "compiler": {
    "name": "solc",
    "version": "0.5.16+commit.9c3226ce.Emscripten.clang"
  },
  "schemaVersion": "3.4.3",
  "updatedAt": "2023-04-12T20:27:27.792Z",
  "networkType": "ethereum",
  "devdoc": {
    "author": "Jisa",
    "methods": {},
    "title": "User Registration"
  },
  "userdoc": {
    "methods": {},
    "notice": "Use this contract for saving and retreiving registered users"
  }
}